{
  "_format": "hh-sol-artifact-1",
  "contractName": "ItemManager",
  "sourceName": "contracts/ItemManager.sol",
  "abi": [
    {
      "anonymous": false,
      "inputs": [
        {
          "indexed": false,
          "internalType": "uint256",
          "name": "_itemIndex",
          "type": "uint256"
        },
        {
          "indexed": false,
          "internalType": "uint256",
          "name": "_step",
          "type": "uint256"
        },
        {
          "indexed": false,
          "internalType": "address",
          "name": "_address",
          "type": "address"
        }
      ],
      "name": "SupplyChainStep",
      "type": "event"
    },
    {
      "inputs": [
        {
          "internalType": "string",
          "name": "_identifier",
          "type": "string"
        },
        {
          "internalType": "uint256",
          "name": "_priceInWei",
          "type": "uint256"
        }
      ],
      "name": "createItem",
      "outputs": [],
      "stateMutability": "nonpayable",
      "type": "function"
    },
    {
      "inputs": [
        {
          "internalType": "uint256",
          "name": "",
          "type": "uint256"
        }
      ],
      "name": "items",
      "outputs": [
        {
          "internalType": "contract Item",
          "name": "_item",
          "type": "address"
        },
        {
          "internalType": "enum ItemManager.SupplyChainSteps",
          "name": "_step",
          "type": "uint8"
        },
        {
          "internalType": "string",
          "name": "_identifier",
          "type": "string"
        }
      ],
      "stateMutability": "view",
      "type": "function"
    },
    {
      "inputs": [
        {
          "internalType": "uint256",
          "name": "_index",
          "type": "uint256"
        }
      ],
      "name": "triggerDelivery",
      "outputs": [],
      "stateMutability": "nonpayable",
      "type": "function"
    },
    {
      "inputs": [
        {
          "internalType": "uint256",
          "name": "_index",
          "type": "uint256"
        }
      ],
      "name": "triggerPayment",
      "outputs": [],
      "stateMutability": "payable",
      "type": "function"
    }
  ],
  "bytecode": "0x608060405234801561001057600080fd5b506119c8806100206000396000f3fe608060405260043610620000445760003560e01c8063800fb83f14620000495780638c5517421462000069578063bfb231d21462000097578063cd31831e14620000dd575b600080fd5b62000067600480360381019062000061919062000816565b6200010b565b005b3480156200007657600080fd5b506200009560048036038101906200008f9190620009aa565b620003b9565b005b348015620000a457600080fd5b50620000c36004803603810190620000bd919062000816565b62000553565b604051620000d49392919062000ba4565b60405180910390f35b348015620000ea57600080fd5b5062000109600480360381019062000103919062000816565b6200063a565b005b600080600083815260200190815260200160002060000160009054906101000a900473ffffffffffffffffffffffffffffffffffffffff1690503373ffffffffffffffffffffffffffffffffffffffff168173ffffffffffffffffffffffffffffffffffffffff1614620001b6576040517f08c379a0000000000000000000000000000000000000000000000000000000008152600401620001ad9062000c5e565b60405180910390fd5b348173ffffffffffffffffffffffffffffffffffffffff16633c8da5886040518163ffffffff1660e01b8152600401602060405180830381865afa15801562000203573d6000803e3d6000fd5b505050506040513d601f19601f8201168201806040525081019062000229919062000c97565b146200026c576040517f08c379a0000000000000000000000000000000000000000000000000000000008152600401620002639062000d19565b60405180910390fd5b6000600281111562000283576200028262000a9b565b5b600080600154815260200190815260200160002060000160149054906101000a900460ff166002811115620002bd57620002bc62000a9b565b5b1462000300576040517f08c379a0000000000000000000000000000000000000000000000000000000008152600401620002f79062000db1565b60405180910390fd5b600160008084815260200190815260200160002060000160146101000a81548160ff021916908360028111156200033c576200033b62000a9b565b5b02179055507fa4035636e99f06b7651a604c1019fa4e8779fe68ef27eeb74dff2de348f6199b8260008085815260200190815260200160002060000160149054906101000a900460ff1660028111156200039b576200039a62000a9b565b5b83604051620003ad9392919062000e09565b60405180910390a15050565b60003082600154604051620003ce90620007b9565b620003dc9392919062000e7f565b604051809103906000f080158015620003f9573d6000803e3d6000fd5b50905080600080600154815260200190815260200160002060000160006101000a81548173ffffffffffffffffffffffffffffffffffffffff021916908373ffffffffffffffffffffffffffffffffffffffff1602179055506000806000600154815260200190815260200160002060000160146101000a81548160ff0219169083600281111562000490576200048f62000a9b565b5b02179055508260008060015481526020019081526020016000206001019081620004bb9190620010e8565b507fa4035636e99f06b7651a604c1019fa4e8779fe68ef27eeb74dff2de348f6199b600154600080600154815260200190815260200160002060000160149054906101000a900460ff1660028111156200051a576200051962000a9b565b5b836040516200052c9392919062000e09565b60405180910390a1600160008154809291906200054990620011fe565b9190505550505050565b60006020528060005260406000206000915090508060000160009054906101000a900473ffffffffffffffffffffffffffffffffffffffff16908060000160149054906101000a900460ff1690806001018054620005b19062000eeb565b80601f0160208091040260200160405190810160405280929190818152602001828054620005df9062000eeb565b8015620006305780601f10620006045761010080835404028352916020019162000630565b820191906000526020600020905b8154815290600101906020018083116200061257829003601f168201915b5050505050905083565b6001600281111562000651576200065062000a9b565b5b60008083815260200190815260200160002060000160149054906101000a900460ff16600281111562000689576200068862000a9b565b5b14620006cc576040517f08c379a0000000000000000000000000000000000000000000000000000000008152600401620006c39062000db1565b60405180910390fd5b600260008083815260200190815260200160002060000160146101000a81548160ff0219169083600281111562000708576200070762000a9b565b5b02179055507fa4035636e99f06b7651a604c1019fa4e8779fe68ef27eeb74dff2de348f6199b8160008084815260200190815260200160002060000160149054906101000a900460ff16600281111562000767576200076662000a9b565b5b60008085815260200190815260200160002060000160009054906101000a900473ffffffffffffffffffffffffffffffffffffffff16604051620007ae9392919062000e09565b60405180910390a150565b610747806200124c83390190565b6000604051905090565b600080fd5b600080fd5b6000819050919050565b620007f081620007db565b8114620007fc57600080fd5b50565b6000813590506200081081620007e5565b92915050565b6000602082840312156200082f576200082e620007d1565b5b60006200083f84828501620007ff565b91505092915050565b600080fd5b600080fd5b6000601f19601f8301169050919050565b7f4e487b7100000000000000000000000000000000000000000000000000000000600052604160045260246000fd5b6200089d8262000852565b810181811067ffffffffffffffff82111715620008bf57620008be62000863565b5b80604052505050565b6000620008d4620007c7565b9050620008e2828262000892565b919050565b600067ffffffffffffffff82111562000905576200090462000863565b5b620009108262000852565b9050602081019050919050565b82818337600083830152505050565b6000620009436200093d84620008e7565b620008c8565b9050828152602081018484840111156200096257620009616200084d565b5b6200096f8482856200091d565b509392505050565b600082601f8301126200098f576200098e62000848565b5b8135620009a18482602086016200092c565b91505092915050565b60008060408385031215620009c457620009c3620007d1565b5b600083013567ffffffffffffffff811115620009e557620009e4620007d6565b5b620009f38582860162000977565b925050602062000a0685828601620007ff565b9150509250929050565b600073ffffffffffffffffffffffffffffffffffffffff82169050919050565b6000819050919050565b600062000a5b62000a5562000a4f8462000a10565b62000a30565b62000a10565b9050919050565b600062000a6f8262000a3a565b9050919050565b600062000a838262000a62565b9050919050565b62000a958162000a76565b82525050565b7f4e487b7100000000000000000000000000000000000000000000000000000000600052602160045260246000fd5b6003811062000ade5762000add62000a9b565b5b50565b600081905062000af18262000aca565b919050565b600062000b038262000ae1565b9050919050565b62000b158162000af6565b82525050565b600081519050919050565b600082825260208201905092915050565b60005b8381101562000b5757808201518184015260208101905062000b3a565b60008484015250505050565b600062000b708262000b1b565b62000b7c818562000b26565b935062000b8e81856020860162000b37565b62000b998162000852565b840191505092915050565b600060608201905062000bbb600083018662000a8a565b62000bca602083018562000b0a565b818103604083015262000bde818462000b63565b9050949350505050565b7f4f6e6c79206974656d732061726520616c6c6f77656420746f2075706461746560008201527f207468656d73656c766573000000000000000000000000000000000000000000602082015250565b600062000c46602b8362000b26565b915062000c538262000be8565b604082019050919050565b6000602082019050818103600083015262000c798162000c37565b9050919050565b60008151905062000c9181620007e5565b92915050565b60006020828403121562000cb05762000caf620007d1565b5b600062000cc08482850162000c80565b91505092915050565b7f4e6f742066756c6c792070616964207965740000000000000000000000000000600082015250565b600062000d0160128362000b26565b915062000d0e8262000cc9565b602082019050919050565b6000602082019050818103600083015262000d348162000cf2565b9050919050565b7f4974656d206973206675727468657220696e2074686520737570706c7920636860008201527f61696e0000000000000000000000000000000000000000000000000000000000602082015250565b600062000d9960238362000b26565b915062000da68262000d3b565b604082019050919050565b6000602082019050818103600083015262000dcc8162000d8a565b9050919050565b62000dde81620007db565b82525050565b600062000df18262000a10565b9050919050565b62000e038162000de4565b82525050565b600060608201905062000e20600083018662000dd3565b62000e2f602083018562000dd3565b62000e3e604083018462000df8565b949350505050565b600062000e538262000a3a565b9050919050565b600062000e678262000e46565b9050919050565b62000e798162000e5a565b82525050565b600060608201905062000e96600083018662000e6e565b62000ea5602083018562000dd3565b62000eb4604083018462000dd3565b949350505050565b7f4e487b7100000000000000000000000000000000000000000000000000000000600052602260045260246000fd5b6000600282049050600182168062000f0457607f821691505b60208210810362000f1a5762000f1962000ebc565b5b50919050565b60008190508160005260206000209050919050565b60006020601f8301049050919050565b600082821b905092915050565b60006008830262000f847fffffffffffffffffffffffffffffffffffffffffffffffffffffffffffffffff8262000f45565b62000f90868362000f45565b95508019841693508086168417925050509392505050565b600062000fc962000fc362000fbd84620007db565b62000a30565b620007db565b9050919050565b6000819050919050565b62000fe58362000fa8565b62000ffd62000ff48262000fd0565b84845462000f52565b825550505050565b600090565b6200101462001005565b6200102181848462000fda565b505050565b5b8181101562001049576200103d6000826200100a565b60018101905062001027565b5050565b601f8211156200109857620010628162000f20565b6200106d8462000f35565b810160208510156200107d578190505b620010956200108c8562000f35565b83018262001026565b50505b505050565b600082821c905092915050565b6000620010bd600019846008026200109d565b1980831691505092915050565b6000620010d88383620010aa565b9150826002028217905092915050565b620010f38262000b1b565b67ffffffffffffffff8111156200110f576200110e62000863565b5b6200111b825462000eeb565b620011288282856200104d565b600060209050601f8311600181146200116057600084156200114b578287015190505b620011578582620010ca565b865550620011c7565b601f198416620011708662000f20565b60005b828110156200119a5784890151825560018201915060208501945060208101905062001173565b86831015620011ba5784890151620011b6601f891682620010aa565b8355505b6001600288020188555050505b505050505050565b7f4e487b7100000000000000000000000000000000000000000000000000000000600052601160045260246000fd5b60006200120b82620007db565b91507fffffffffffffffffffffffffffffffffffffffffffffffffffffffffffffffff820362001240576200123f620011cf565b5b60018201905091905056fe608060405234801561001057600080fd5b5060405161074738038061074783398181016040528101906100329190610134565b816000819055508060028190555082600360006101000a81548173ffffffffffffffffffffffffffffffffffffffff021916908373ffffffffffffffffffffffffffffffffffffffff160217905550505050610187565b600080fd5b600073ffffffffffffffffffffffffffffffffffffffff82169050919050565b60006100b98261008e565b9050919050565b60006100cb826100ae565b9050919050565b6100db816100c0565b81146100e657600080fd5b50565b6000815190506100f8816100d2565b92915050565b6000819050919050565b610111816100fe565b811461011c57600080fd5b50565b60008151905061012e81610108565b92915050565b60008060006060848603121561014d5761014c610089565b5b600061015b868287016100e9565b935050602061016c8682870161011f565b925050604061017d8682870161011f565b9150509250925092565b6105b1806101966000396000f3fe6080604052600436106100385760003560e01c80632986c0e51461024e5780633c8da5881461027957806383d12eef146102a457610240565b36610240576000543414610081576040517f08c379a000000000000000000000000000000000000000000000000000000000815260040161007890610364565b60405180910390fd5b6000600154146100c6576040517f08c379a00000000000000000000000000000000000000000000000000000000081526004016100bd906103d0565b60405180910390fd5b34600160008282546100d89190610429565b925050819055506000600360009054906101000a900473ffffffffffffffffffffffffffffffffffffffff1673ffffffffffffffffffffffffffffffffffffffff163460025460405160240161012e919061046c565b6040516020818303038152906040527f800fb83f000000000000000000000000000000000000000000000000000000007bffffffffffffffffffffffffffffffffffffffffffffffffffffffff19166020820180517bffffffffffffffffffffffffffffffffffffffffffffffffffffffff83818316178352505050506040516101b891906104f8565b60006040518083038185875af1925050503d80600081146101f5576040519150601f19603f3d011682016040523d82523d6000602084013e6101fa565b606091505b505090508061023e576040517f08c379a00000000000000000000000000000000000000000000000000000000081526004016102359061055b565b60405180910390fd5b005b34801561024c57600080fd5b005b34801561025a57600080fd5b506102636102cf565b604051610270919061046c565b60405180910390f35b34801561028557600080fd5b5061028e6102d5565b60405161029b919061046c565b60405180910390f35b3480156102b057600080fd5b506102b96102db565b6040516102c6919061046c565b60405180910390f35b60025481565b60005481565b60015481565b600082825260208201905092915050565b7f576520646f6e277420737570706f7274207061727469616c207061796d656e7460008201527f7300000000000000000000000000000000000000000000000000000000000000602082015250565b600061034e6021836102e1565b9150610359826102f2565b604082019050919050565b6000602082019050818103600083015261037d81610341565b9050919050565b7f4974656d20697320616c72656164792070616964210000000000000000000000600082015250565b60006103ba6015836102e1565b91506103c582610384565b602082019050919050565b600060208201905081810360008301526103e9816103ad565b9050919050565b6000819050919050565b7f4e487b7100000000000000000000000000000000000000000000000000000000600052601160045260246000fd5b6000610434826103f0565b915061043f836103f0565b9250828201905080821115610457576104566103fa565b5b92915050565b610466816103f0565b82525050565b6000602082019050610481600083018461045d565b92915050565b600081519050919050565b600081905092915050565b60005b838110156104bb5780820151818401526020810190506104a0565b60008484015250505050565b60006104d282610487565b6104dc8185610492565b93506104ec81856020860161049d565b80840191505092915050565b600061050482846104c7565b915081905092915050565b7f44656c697665727920646964206e6f7420776f726b0000000000000000000000600082015250565b60006105456015836102e1565b91506105508261050f565b602082019050919050565b6000602082019050818103600083015261057481610538565b905091905056fea26469706673582212202aa7a9ab02882ae10b170339fad2fda8a3dcd8653d026a40330277d0163744a864736f6c63430008110033a2646970667358221220e22aef00d2cb47f46554af123e11fb01796565d784125df9046876526b996c8c64736f6c63430008110033",
  "linkReferences": {},
  "deployedLinkReferences": {}
}