{
  "_format": "hh-sol-artifact-1",
  "contractName": "Lock",
  "sourceName": "contracts/Lock.sol",
  "abi": [
    {
      "inputs": [
        {
          "internalType": "uint256",
          "name": "_unlockTime",
          "type": "uint256"
        }
      ],
      "stateMutability": "payable",
      "type": "constructor"
    },
    {
      "anonymous": false,
      "inputs": [
        {
          "indexed": false,
          "internalType": "uint256",
          "name": "amount",
          "type": "uint256"
        },
        {
          "indexed": false,
          "internalType": "uint256",
          "name": "when",
          "type": "uint256"
        }
      ],
      "name": "Withdrawal",
      "type": "event"
    },
    {
      "inputs": [
        {
          "internalType": "address",
          "name": "user",
          "type": "address"
        },
        {
          "internalType": "string",
          "name": "url",
          "type": "string"
        }
      ],
      "name": "addItem",
      "outputs": [],
      "stateMutability": "nonpayable",
      "type": "function"
    },
    {
      "inputs": [],
      "name": "owner",
      "outputs": [
        {
          "internalType": "address payable",
          "name": "",
          "type": "address"
        }
      ],
      "stateMutability": "view",
      "type": "function"
    },
    {
      "inputs": [],
      "name": "unlockTime",
      "outputs": [
        {
          "internalType": "uint256",
          "name": "",
          "type": "uint256"
        }
      ],
      "stateMutability": "view",
      "type": "function"
    },
    {
      "inputs": [],
      "name": "withdraw",
      "outputs": [],
      "stateMutability": "nonpayable",
      "type": "function"
    }
  ],
  "bytecode": "0x6080604052604051610b52380380610b52833981810160405281019061002591906100f0565b804210610067576040517f08c379a000000000000000000000000000000000000000000000000000000000815260040161005e906101a0565b60405180910390fd5b8060008190555033600160006101000a81548173ffffffffffffffffffffffffffffffffffffffff021916908373ffffffffffffffffffffffffffffffffffffffff160217905550506101c0565b600080fd5b6000819050919050565b6100cd816100ba565b81146100d857600080fd5b50565b6000815190506100ea816100c4565b92915050565b600060208284031215610106576101056100b5565b5b6000610114848285016100db565b91505092915050565b600082825260208201905092915050565b7f556e6c6f636b2074696d652073686f756c6420626520696e207468652066757460008201527f7572650000000000000000000000000000000000000000000000000000000000602082015250565b600061018a60238361011d565b91506101958261012e565b604082019050919050565b600060208201905081810360008301526101b98161017d565b9050919050565b610983806101cf6000396000f3fe608060405234801561001057600080fd5b506004361061004c5760003560e01c8063251c1aa31461005157806336e0271d1461006f5780633ccfd60b1461008b5780638da5cb5b14610095575b600080fd5b6100596100b3565b60405161006691906102e7565b60405180910390f35b610089600480360381019061008491906104ba565b6100b9565b005b61009361012f565b005b61009d6102a8565b6040516100aa9190610537565b60405180910390f35b60005481565b600260008373ffffffffffffffffffffffffffffffffffffffff1673ffffffffffffffffffffffffffffffffffffffff1681526020019081526020016000208190806001815401808255809150506001900390600052602060002001600090919091909150908161012a9190610769565b505050565b600054421015610174576040517f08c379a000000000000000000000000000000000000000000000000000000000815260040161016b90610898565b60405180910390fd5b600160009054906101000a900473ffffffffffffffffffffffffffffffffffffffff1673ffffffffffffffffffffffffffffffffffffffff163373ffffffffffffffffffffffffffffffffffffffff1614610204576040517f08c379a00000000000000000000000000000000000000000000000000000000081526004016101fb90610904565b60405180910390fd5b7fbf2ed60bd5b5965d685680c01195c9514e4382e28e3a5a2d2d5244bf59411b934742604051610235929190610924565b60405180910390a1600160009054906101000a900473ffffffffffffffffffffffffffffffffffffffff1673ffffffffffffffffffffffffffffffffffffffff166108fc479081150290604051600060405180830381858888f193505050501580156102a5573d6000803e3d6000fd5b50565b600160009054906101000a900473ffffffffffffffffffffffffffffffffffffffff1681565b6000819050919050565b6102e1816102ce565b82525050565b60006020820190506102fc60008301846102d8565b92915050565b6000604051905090565b600080fd5b600080fd5b600073ffffffffffffffffffffffffffffffffffffffff82169050919050565b600061034182610316565b9050919050565b61035181610336565b811461035c57600080fd5b50565b60008135905061036e81610348565b92915050565b600080fd5b600080fd5b6000601f19601f8301169050919050565b7f4e487b7100000000000000000000000000000000000000000000000000000000600052604160045260246000fd5b6103c78261037e565b810181811067ffffffffffffffff821117156103e6576103e561038f565b5b80604052505050565b60006103f9610302565b905061040582826103be565b919050565b600067ffffffffffffffff8211156104255761042461038f565b5b61042e8261037e565b9050602081019050919050565b82818337600083830152505050565b600061045d6104588461040a565b6103ef565b90508281526020810184848401111561047957610478610379565b5b61048484828561043b565b509392505050565b600082601f8301126104a1576104a0610374565b5b81356104b184826020860161044a565b91505092915050565b600080604083850312156104d1576104d061030c565b5b60006104df8582860161035f565b925050602083013567ffffffffffffffff811115610500576104ff610311565b5b61050c8582860161048c565b9150509250929050565b600061052182610316565b9050919050565b61053181610516565b82525050565b600060208201905061054c6000830184610528565b92915050565b600081519050919050565b7f4e487b7100000000000000000000000000000000000000000000000000000000600052602260045260246000fd5b600060028204905060018216806105a457607f821691505b6020821081036105b7576105b661055d565b5b50919050565b60008190508160005260206000209050919050565b60006020601f8301049050919050565b600082821b905092915050565b60006008830261061f7fffffffffffffffffffffffffffffffffffffffffffffffffffffffffffffffff826105e2565b61062986836105e2565b95508019841693508086168417925050509392505050565b6000819050919050565b600061066661066161065c846102ce565b610641565b6102ce565b9050919050565b6000819050919050565b6106808361064b565b61069461068c8261066d565b8484546105ef565b825550505050565b600090565b6106a961069c565b6106b4818484610677565b505050565b5b818110156106d8576106cd6000826106a1565b6001810190506106ba565b5050565b601f82111561071d576106ee816105bd565b6106f7846105d2565b81016020851015610706578190505b61071a610712856105d2565b8301826106b9565b50505b505050565b600082821c905092915050565b600061074060001984600802610722565b1980831691505092915050565b6000610759838361072f565b9150826002028217905092915050565b61077282610552565b67ffffffffffffffff81111561078b5761078a61038f565b5b610795825461058c565b6107a08282856106dc565b600060209050601f8311600181146107d357600084156107c1578287015190505b6107cb858261074d565b865550610833565b601f1984166107e1866105bd565b60005b82811015610809578489015182556001820191506020850194506020810190506107e4565b868310156108265784890151610822601f89168261072f565b8355505b6001600288020188555050505b505050505050565b600082825260208201905092915050565b7f596f752063616e27742077697468647261772079657400000000000000000000600082015250565b600061088260168361083b565b915061088d8261084c565b602082019050919050565b600060208201905081810360008301526108b181610875565b9050919050565b7f596f75206172656e277420746865206f776e6572000000000000000000000000600082015250565b60006108ee60148361083b565b91506108f9826108b8565b602082019050919050565b6000602082019050818103600083015261091d816108e1565b9050919050565b600060408201905061093960008301856102d8565b61094660208301846102d8565b939250505056fea2646970667358221220d4322ae6d999f2ab02f78ec54e0667616877e5df2b08b236805c6a33129d84a264736f6c63430008110033",
  "linkReferences": {},
  "deployedLinkReferences": {}
}